:020000040800F2
:10000000F80400209D0100086D1A0008EB18000894
:10001000511A0008B1020008B526000800000000CF
:10002000000000000000000000000000F11E0008B9
:10003000B3020008000000006F1A0008FF2100084A
:10004000B7010008B7010008B7010008B7010008B0
:10005000B7010008B7010008B7010008B7010008A0
:10006000B5020008B7010008B7010008B701000891
:10007000B7010008B7010008B7010008B701000880
:10008000B7010008B7010008B7010008B701000870
:10009000B7010008B7010008B7010008B701000860
:1000A000B7010008B7010008B7010008B701000850
:1000B000B7010008B7010008B7010008B701000840
:1000C000B7010008B7010008B7010008B701000830
:1000D000B7010008B7010008B7010008B701000820
:1000E000B7010008B7010008B7010008B701000810
:1000F000B7010008B7010008B7010008B701000800
:10010000B7010008B7010008B7010008B7010008EF
:10011000B7010008B7010008B7010008B7010008DF
:10012000B7010008B7010008B7010008B7010008CF
:10013000B7010008B7010008B7010008B7010008BF
:10014000B7010008B7010008B7010008B7010008AF
:10015000B7010008B7010008B7010008B70100089F
:10016000B7010008B7010008B7010008B70100088F
:10017000B7010008B7010008B7010008000000003F
:10018000B7010008B7010008DFF80CD000F07EF8D6
:1001900000480047992B0008F804002006488047D3
:1001A00006480047FEE7FEE7FEE7FEE7FEE7FEE75C
:1001B000FEE7FEE7FEE7FEE761220008890100088E
:1001C0002DE9F05F0546002092469B46884606468C
:1001D000814640241BE0284641464746224600F01F
:1001E00044F853465A46C01A914110D31146184656
:1001F000224600F02BF82D1A67EB01084F462246E5
:100200000120002100F022F817EB00094E41201ECA
:10021000A4F10104DFDC484631462A46434600F09B
:1002200000B830BCBDE8C09FD2B201E000F8012B9D
:10023000491EFBD270470022F6E710B513460A4666
:1002400004461946FFF7F0FF204610BD202A04DBC4
:10025000203A00FA02F1002070479140C2F12003D9
:1002600020FA03F3194390407047202A04DB203A18
:1002700021FA02F00021704721FA02F3D040C2F1C6
:10028000200291400843194670470000064C074D74
:1002900006E0E06840F0010394E807009847103456
:1002A000AC42F6D3FFF774FF882C0008A82C000896
:1002B000FEE77047042000F015B8000070B5044652
:1002C00000F05AF90546601C02D004480078044446
:1002D00000F052F9401BA042FAD370BD000000208C
:1002E00070470000044910B50A68024202D0086055
:1002F000FFF7F6FF10BD0000140401402DE9F04F98
:10030000DFF83492002309F1040A012403250AF1DD
:10031000040B87B00F270BF1040E04E104FA03F677
:1003200032407CD0D1F804C0BCF1010F08D0BCF140
:10033000020F05D0BCF1110F02D0BCF1120F29D170
:10034000D0F808C0CDF800C04FEA430C05FA0CF80D
:10035000CDF80CC0DDF800C02CEA080CCDF800C0C8
:10036000D1F80C80DDF80CC008FA0CF8DDF800C0FC
:1003700048EA0C08C0F80880D0F8048091F804C05E
:1003800028EA0608CCF3001C0CFA03FC4CEA080C23
:10039000C0F804C0D1F804806FEA080C5FEA8C7CD6
:1003A00009D1D0F82CC02CEA060CC8F3C0069E4038
:1003B00046EA0C06C662D0F80CC04FEA430805FABC
:1003C00008F62CEA060CCDF8148002968E6806FA20
:1003D00008F646EA0C06C6604E68022E01D0122EC0
:1003E00015D1DE0800EB86060396366A4FEA437C99
:1003F0004FEADC6807FA08FC26EA0C06D1F810C0C0
:100400000CFA08FC4CEA060C039EC6F820C00668ED
:10041000DDF808C026EA0C0691F804C000E081E08F
:10042000DDF814800CF0030C0CFA08FC4CEA060C06
:10043000C0F800C04E68F60074D5404ED6F860C0D3
:100440004CF0010CC6F860C0366E23F0030C06F0C9
:10045000010600963A4E66440296D6F808C09E07FA
:100460004FEA167807FA08F62CEA060CB0F1904F1E
:1004700004D0344EB04203D101261BE0002619E01F
:10048000314EB04201D1022614E0304EB04201D1CB
:1004900003260FE02E4EB04201D104260AE02D4E75
:1004A000B04201D1052605E02B4EB04201D106260F
:1004B00000E0072606FA08F646EA0C06DDF808C052
:1004C000CCF80860D9F80060CC46D1F80480964397
:1004D0005FEAC83800D51643CCF80060DAF800604F
:1004E000D446D1F8048096435FEA883800D5164395
:1004F000CCF80060DBF80060DC46D1F8048096435D
:100500005FEAC82800D51643CCF80060DEF800602A
:10051000F446D1F8048096435FEA882800D5164354
:10052000CCF800605B1C0A6832FA03F67FF4F6AE82
:1005300007B000F013B800000004014000100240B2
:10054000000001400004004800080048000C00487A
:1005500000100048001400480018004830BCBDE8F6
:10056000C08F0069084000D0012070470AB1816146
:100570007047816270470000014880687047000042
:1005800000000020024881680278114481607047B1
:100590000000002010B50024032000F071F80020B6
:1005A00000F008F808B1012401E000F025F8204629
:1005B00010BD000070B50E4E05460024307898B18D
:1005C0004FF47A71B1FBF0F00A490968B1FBF0F021
:1005D00001F0B7F840B9102D06D200222946501E6E
:1005E00000F02EF8756000E00124204670BD000088
:1005F000000000200C000020094808B5016E41F001
:1006000001010166016E01F001010091816D41F06F
:1006100080518165806D00F08050009008BD000021
:1006200000100240002809DB00F01F020121914068
:100630004009800000F1E020C0F800117047000080
:10064000F0B40E4B1B680C46C3F30223C3F107053D
:10065000042D00D90425191D072901D2002300E02B
:10066000DB1E012606FA05F1491E214099409E40F5
:10067000761E16403143F0BC02F02EB80CED00E0BF
:10068000064900F0070208684FF6FF03184040EAE9
:100690000220034A10430860704700000CED00E0A0
:1006A0000000FA051649B0F5007F0868C0F3412044
:1006B00009D0022805D0086820F4C06040F48060AA
:1006C0000860002070470128FBD0086820F4C06053
:1006D00040F4007008600B483222006850430A4A18
:1006E000B0FBF2F0401C00E0401E4A69520501D503
:1006F0000028F9D148694005E3D503207047000080
:10070000007000400C00002040420F0002480068CA
:1007100000F4C06070470000007000402DE9F84F01
:10072000044600270088E54D3E46010504F1200BF4
:100730001DD5606E78B1B0F5800F11D0B0F5000F07
:1007400004D0B0F5400F22D001270FE0E86840F454
:100750008030E8601BE00021201D01F089F903E0F2
:100760000021584601F01AFA070010D03E462088B2
:10077000C00426D5A06EC0B1B0F1807F1AD0B0F110
:10078000007F0DD0B0F1407F19D0012718E0D5F8D7
:100790008800616E20F440000843C5F88800E6E751
:1007A000E86840F48030E86009E00021201D01F095
:1007B0005FF903E00021584601F0F0F90746F7B170
:1007C0003E46206880033AD5A86D4FF00008C0006F
:1007D00009D4A86D40F08050A865A86D4FF00108BD
:1007E00000F080500090DFF8D8A2DAF8001041F451
:1007F0008071CAF80010FFF7BFFE814610E0D5F8FF
:100800008800A16E20F040700843C5F88800D8E742
:10081000FFF7B2FEA0EB0900022801D9032705E08B
:10082000DAF80000C005F3D5002F7CD04FEA0706A8
:10083000B8F1000F03D0A86D20F08050A865207893
:10084000C00707D0D5F88800A16B20F0030008434B
:10085000C5F888002078800707D5D5F88800E16BB7
:1008600020F00C000843C5F888002078400707D521
:10087000D5F88800216C20F030000843C5F88800C6
:100880002078000707D5D5F88800616C20F0C000FB
:100890000843C5F888002078C00607D5D5F8880039
:1008A000A16C20F440700843C5F8880020788006C9
:1008B00007D5D5F88800E16C20F440600843C5F8FE
:1008C00088002088800507D5D5F88800E16D20F4E0
:1008D00040200843C5F888002088400507D5D5F892
:1008E0008800216E20F440100843C5F88800207865
:1008F000400607D5D5F88800216D20F44050084304
:10090000C5F888002078000607D5D5F88800616D05
:1009100020F440400843C5F888002088C00509D568
:10092000D5F8880000E01CE0A16D20F440300843B9
:10093000C5F8880020884FF0006780044FF0806879
:100940004FD5D5F88800E16E20F040600843C5F827
:100950008800E06EB8423CD1E86840F48010E8605E
:100960003FE0D5F8900010F4407015D0D4F8841012
:10097000814211D0D5F89000D5F8901020F4407045
:1009800041F48031C5F89010D5F8901021F48031F1
:10099000C5F89010C5F89000C00710D0FFF7ECFD27
:1009A000074641F2883906E0FFF7E6FDC11B4945DD
:1009B00001D903263CE7D5F890008007F4D5D5F897
:1009C0009000D4F8841020F440700843C5F89000DB
:1009D0002EE7404505D10121201D01F049F800B165
:1009E00006462068000317D5D5F88800216F20F04F
:1009F00040600843C5F88800206FB84204D1E86819
:100A000040F48010E86007E0404505D10121201D39
:100A100001F02EF800B106462068400317D5D5F83E
:100A20008800616F20F040600843C5F88800606F5F
:100A3000B84204D1E86840F48010E86007E040451F
:100A400005D10121201D01F013F800B106462088D0
:100A500040041AD5D5F88800A16F20F04050084313
:100A6000C5F88800A06FB0F1805F03D0B0F1005FDF
:100A700005D00AE00221201D00F0FAFF03E0022168
:100A8000584601F08BF800B106462088000407D5CF
:100A9000D5F88800E16F20F080400843C5F8880051
:100AA0002068C00307D555F8880FD4F8801020F0CF
:100AB000004008432860304600F004B800100240AF
:100AC0000070004018BCBDE8E08F00002DE9F04741
:100AD0000F46050058D0404E306800F00700B8427D
:100AE00009D2306820F0070038433060306800F0E9
:100AF0000700B84248D12878384CC0072CD0686825
:100B0000032811D0022812D0216898B14905002984
:100B10003ADAA16821F003010143A160FFF72CFD3F
:100B2000804641F2883910E021688901EFE72168A9
:100B30008903ECE78907EAE7FFF71EFDA0EB080150
:100B4000494502D90320BDE8F087A068696800F034
:100B50000C00B0EB810FEFD12878800705D5A06895
:100B6000A96820F0F0000843A060306800F007009A
:100B7000B8420BD9306820F0070038433060306845
:100B800000F00700B84201D00120DCE728784007D8
:100B900005D5A068E96820F4E0600843A0602878E3
:100BA000000706D5A068296920F4605040EAC1001A
:100BB000A06000F03FF8A168094AC1F30311515C3D
:100BC00001F01F01C8400749086007480068BDE8F8
:100BD000F047FFF7EFBC0000002002400010024089
:100BE000B42B00080C000020040000200548064932
:100BF00000688968054AC1F30221515C01F01F01B8
:100C0000C84070470C00002000100240F42B000880
:100C10000548064900688968054AC1F3C221515C4C
:100C200001F01F01C84070470C0000200010024076
:100C3000F42B000870B52549002318468A68CC6853
:100C400012F00C0204F00306214C4FEA640509D0AF
:100C50000C2A05D0042A32D0082A00D1284670BDBB
:100C6000012E10D10B681B0704D4D1F89430C3F3C4
:100C7000032302E00B68C3F30313164E56F8233028
:100C8000DAB10C2AEBD1C86800F00300022818D0B2
:100C9000032818D01846CA68CB68C2F30212C3F3FF
:100CA00006234343521CB3FBF2F2C868C0F3416011
:100CB000401C4000B2FBF0F070BD184670BD2046ED
:100CC00070BD2046E7E72846E5E700000010024037
:100CD0000024F400C42B00082DE9F84304006FD071
:100CE000FE4DA86800F00C06E86800F003072078C5
:100CF000C00664D576B10C2E01D1012F0AD0A069AF
:100D0000002828687AD040F001002860FFF734FC02
:100D100080465DE02868800702D5A0690028DED003
:100D2000216A2868000703D5286800F0F00004E075
:100D3000D5F89400F02202EA1010814216D9084634
:100D400000F0B0FF00283BD1286840F00800286080
:100D50002868216A20F0F000084328606868E1698B
:100D600020F47F4040EA0120686016E0286840F0E7
:100D7000080028602868216A20F0F00008432860F5
:100D80006868E16920F47F4040EA0120686026B984
:100D9000206A00F087FF0028D5D1FFF74BFFA96834
:100DA000CF4AC1F30311515C01F01F01C840CD4986
:100DB0000860CD480068FFF7FDFB00287ED12EE0DB
:100DC000CAE000BFFFF7D8FBA0EB0800022876D8E6
:100DD00028688007F6D5286840F008002860286851
:100DE000216A20F0F000084328606868E16920F477
:100DF0007F4040EA0120686011E0FFE720F0010039
:100E00002860FFF7B9FB804606E000BFFFF7B4FBA0
:100E1000A0EB08000228DAD828688007F6D42078EA
:100E2000C00740D0082E18D00C2E01D1032F14D0AB
:100E30006068B0F5803F17D0B0F5A02F286817D0B4
:100E400020F480302860286820F4802028606068C2
:100E5000E0B1FFF791FB804614E02868800322D5BB
:100E60006068002878D01EE0286840F48030EDE704
:100E700040F480202860F7E7FFF77EFBA0EB080036
:100E80006428A4D828688003F6D50CE0FFF774FB2B
:100E9000804605E0FFF770FBA0EB0800642896D8B9
:100EA00028688003F6D4207880073BD5042E11D023
:100EB0000C2E01D1022F0DD0E06801E092E1F1E0AB
:100EC000002828681ED040F480702860FFF754FB8B
:100ED00007460CE0286840050CD5E0680028C1D022
:100EE00008E000BFFFF748FBC01B022893D8286822
:100EF0004005F7D56868217C20F0F85040EA016091
:100F000068600FE020F480702860FFF735FB07462B
:100F100005E000BFFFF730FBC01B0228B1D82868EE
:100F20004005F7D42078000729D560690028D5F856
:100F3000940012D040F00100C5F89400FFF71CFBAC
:100F4000074604E0FFF718FBC01B022899D8D5F824
:100F500094008007F6D512E000E120F00100C5F80A
:100F60009400FFF709FB074605E000BFFFF704FB0D
:100F7000C01B022885D8D5F894008007F6D42078C5
:100F8000400766D5A86D0027C00008D4A86D40F0C2
:100F90008050A865A86D012700F08050009053484C
:100FA0000168C90512D40168814641F4807101606D
:100FB000FFF7E2FA804605E0FFF7DEFAA0EB080053
:100FC00002286FD8D9F80000C005F5D5A06801281F
:100FD00016D00528D5F8900017D020F00100C5F8EC
:100FE0009000D5F8900020F0040000BFC5F89000F4
:100FF000A06841F28839C0B1FFF7BEFA80460FE021
:10100000D5F8900040F00100F0E740F00400C5F88A
:101010009000F5E7FFF7B0FAA0EB0801494541D889
:10102000D5F890008007F5D50EE0FFF7A5FA8046C9
:1010300006E000BFFFF7A0FAA0EB0801494531D850
:10104000D5F890008007F5D41FB1A86D20F080502E
:10105000A865A06A38B302280AD00C2E7ED0286872
:1010600020F080702860286810F0205F77D0AAE018
:10107000E868E26A00F0030191422BD1216B00F095
:10108000700209011039914224D1626B00F4FE41D3
:10109000B1EB022F1ED1A26B00F40031072A03D05E
:1010A000012202E09DE089E00022914212D1A18F4D
:1010B00000F4C00249084905A1F50011914209D187
:1010C00094F8401000F0C06049084906A1F1007191
:1010D00081425CD00C2E41D0286809E0001002400B
:1010E000B42B00080C000020040000200070004019
:1010F00040017ED42868C0007BD4286820F080702E
:101100002860FFF739FA064605E000BFFFF734FA1A
:10111000801B022865D828688001F7D4D4E90B0128
:101120006FF00F0202EB01110843A18F520449082E
:1011300002EB4151626B41EA0221084394F84010EE
:101140004FF07E42490802EB41610843A16B090957
:1011500040EA4140E968284A114001E049E02EE0B8
:101160000843E860286840F080702860E86840F034
:101170008070E860FFF700FA044604E0FFF7FCF92E
:10118000001B02282DD828688001F7D52FE0286899
:1011900080012CD4286840F080702860E86840F016
:1011A0008070E860FFF7E8F9044604E0FFF7E4F92F
:1011B000001B022815D828688001F7D517E0E868D9
:1011C00020F00300E860E8680C490840E860FFF799
:1011D000D3F9044608E000BFFFF7CEF9001B022850
:1011E00002D90320BDE8F88328688001F4D40020E8
:1011F000F8E70120F6E700008C809DF9FFFFEEFE86
:1012000090F85D00704770B5040009D0606A002551
:1012100040B125616561A56294F85D0040B10CE0C4
:10122000012070BD6068B0F5827FF4D0E561F2E71F
:1012300084F85C50204600F057F8022084F85D00E6
:101240002068016821F040010160E1684FF4E0622C
:10125000914201D9002001E04FF48050B1F5706F48
:1012600002D0914200D0A562A188228901F4827146
:1012700002F404421143227C02F002021143227D57
:1012800002F001021143228B02F400721143227F0B
:1012900002F03802114394F8202002F0800211433A
:1012A000228D02F40052114322681160A1690422C8
:1012B00002EA114194F8242000F4805002F0100258
:1012C000114394F8342002F008021143A28902F479
:1012D000706211430143206841602566012084F853
:1012E0005D00002070BD000010B586B004461421DA
:1012F0006846FEF7A0FF1349206888421FD11248B4
:10130000016E41F480510166016E01F48051059136
:10131000C16C41F00101C164C06C694600F001007C
:101320000590E02000900220019000200290032010
:101330000390052004904FF09040FEF7DFFF06B0C9
:1013400010BD000000300140001002402DE9F84FB0
:10135000044690F85C0000271D4616468946012881
:101360000DD04FF0010B84F85CB0FFF705F9804613
:1013700094F85D00BA46012804D00227A4E00220B8
:1013800000F0A8B8B9F1000F74D0002E72D003207D
:1013900084F85D00C4F860A0C4F83890A687E6879A
:1013A000C4F840A0A4F844A0A4F846A0C4F850A0F3
:1013B000C4F84CA0A068B0F5004F09D120680168BE
:1013C00021F0400101602068016841F48041016022
:1013D00020680168490603D4016841F040010160BA
:1013E000E068B0F5E06F606823D908B1012E1CD128
:1013F000A06B21680088C86006E0206881688907C2
:1014000009D5A16B0988C160A06B801CA063E08F27
:10141000401EE08709E0FFF7AFF8A0EB0800A84204
:1014200002D3681C01D046E0ADB3E08F0028E4D1C0
:1014300036E008B1012E30D1E08F0128A06B03D92E
:1014400021680088C8600FE021680078087314E004
:10145000E08722E020688168890714D5E18F01299F
:10146000A16B08D90988C160A06B801CA063E08FC4
:10147000801EEDE727E009780173A06B401CA06394
:10148000E08F401EE4E7FFF777F8A0EB0800A842E2
:1014900002D3681C01D00EE06DB1E08F0028D9D1D5
:1014A00042462946204600F03BFC08B12020206639
:1014B000A06810B105E0032706E02068C1688068D5
:1014C0000090206E00B1012784F85DB084F85CA024
:1014D000384655E718BCBDE8E08F2DE9F05F0446BB
:1014E00090F85C0000270A9E1D4692468B464FF0FE
:1014F000010901280ED0012084F85C00FFF73CF8B8
:10150000804694F85D00616801280CD0B1F5827FB7
:1015100007D102E0022000F011B9A16809B904283E
:1015200001D0022700E1BBF1000F24D0BAF1000F77
:1015300021D005B394F85D00042802D0052084F87A
:101540005D0000202066C4F840A0A4F84650A4F82E
:101550004450C4F838B0E587A587E0642065E068AA
:101560004FF4E061884201D8012D06D92068426815
:1015700022F4805205E00127D6E02068426842F458
:101580008052426020680268520603D4026842F02A
:1015900040020260E0688842606845D908B1012DC8
:1015A0003AD1A06B21680088C860A06B801CA06342
:1015B000E08F401EE0872FE02068816889070FD503
:1015C000E18F69B1B9F1010F0AD1A16B0988C1603E
:1015D000A06B801CA063E08F401EE0874FF00009E5
:1015E00020688168C9070FD0B4F8461061B1C0689F
:1015F000216C0880206C801C2064B4F84600401EDA
:10160000A4F846004FF00109FEF7B6FFA0EB080072
:10161000B04201D3701C75D1E08F0028CCD1B4F852
:1016200046000028C8D176E008B1012D6CD1E08FCA
:101630000128A06B08D921680088C860A06B801CB5
:10164000A063E08F801E07E0216800780873A06B1C
:10165000401CA063E08F401EE08755E02068816851
:1016600089071AD5E18FC1B1B9F1010F15D1E18F09
:101670000129A16B07D90988C160A06B801CA063F8
:10168000E08F801E06E009780173A06B401CA06308
:10169000E08F401EE0874FF0000920688168C9078D
:1016A00028D0B4F8461029B3B4F84610012914D94B
:1016B000C068216C0880206C801C2064B4F846004F
:1016C000801EA4F84600B4F84600012810D820680F
:1016D000416841F4805141600AE0007B216C087050
:1016E000206C401C2064B4F84600401EA4F846005C
:1016F0004FF00109FEF740FFA0EB0800B04202D313
:10170000701C01D018E0BEB1E08F0028A6D1B4F85B
:1017100046000028A2D142463146204600F000FB98
:1017200010B1012720202066012084F85D000020F0
:1017300084F85C003846EEE60327F5E730BCBDE8E8
:10174000C09F10B5401EB0F1807F01D3012010BDB5
:101750004FF0E02460610F21601700F0BDFF002012
:10176000A06107202061002010BD10B5040002D048
:10177000606F10B107E0012010BD002084F87000F8
:10178000204600F025F8242060672068016821F0D9
:1017900001010160204600F015FE0128ECD0606ACE
:1017A00010B1204600F07EFD2068416821F4904190
:1017B00041602068816821F02A0181602068016809
:1017C00041F0010101602046BDE8104000F0CEBDAF
:1017D00010B586B0044614216846FEF72CFD134967
:1017E0002068884220D11248016E41F48041016690
:1017F000016E01F480410591C16C41F00101C164A9
:10180000C06C694600F0010005904FF4C060009084
:1018100002200190002002900320039007200490F2
:101820004FF09040FEF76AFD06B010BD0038014051
:10183000001002402DE9F8430446406F1F4616464B
:101840000D4620284FD1CDB1C6B194F870000128C3
:1018500049D0012084F870004FF00008C4F87C8063
:1018600021206067FEF788FEA4F850608146A4F846
:101870005260A068B0F5805F03D004E00120BDE8AD
:10188000F883206928B12E465FF0000584F8708047
:1018900010E00026FAE78021204600F0B9FEB8B932
:1018A000C6B116F8010B21680885B4F85200401E35
:1018B000A4F85200B4F852004B464FF000020097D3
:1018C0000028E8D14FF04001204600F0A1FE30B1E1
:1018D0000320D4E735F8020BC0F30800E3E720202B
:1018E00060670020CBE70220C9E7FEE710B54FF0A4
:1018F0009044012210212046FEF738FE01221146B5
:101900002046FEF733FE0022BDE8104010210148BA
:10191000FEF72CBE0008004810B500F091FB012036
:1019200000F0BAFBBDE8104000F0E4BA2DE9F04148
:1019300086B014216846FEF77EFC2748C16C41F052
:101940000401C164C16C01F004010591C16C41F056
:101950000101C164C06C4FF0904700F00100059098
:10196000002215213846FEF701FEDFF870800022C4
:1019700010214046FEF7FAFD042000901848022589
:10198000CDE9010569464046FEF7B8FC15200090F8
:1019900001260024CDE90164694638460394FEF728
:1019A000ADFCCDE90054694638460294FEF7A6FC2A
:1019B00010200090CDE90164694640460394FEF78B
:1019C0009DFC002211460820FEF73AFE0820FEF793
:1019D00029FE06B0BDE8F081001002400008004872
:1019E000000011100E480D494FF4E06201604FF401
:1019F000827141600021C0E902124FF4007201615E
:101A0000C0E905122822C0E9072107224162C0E986
:101A10000A12016308214163FFF7F5BB0030014062
:101A2000140000200948084901604FF4E131416089
:101A3000002181600C22C160C0E904128161C16192
:101A400001624162FFF791BE00380140780000203A
:101A5000FEE7000010B5044800F02EFEFFF746FF39
:101A6000BDE81040FFF758BFFC2B000870477047D7
:101A70002DE9F041444C05468846E0680026810780
:101A800028680DD0E16801F00301814216D1A8B1A8
:101A9000E0686968C0F30210401C88420ED120E063
:101AA000012804D0022805D0032807D108E02168C6
:101AB000890701E021684905002907DB01265FE06D
:101AC0002168890302D421684903F5E7E1686A685F
:101AD0006FF00F0321F0730103EB02121143014376
:101AE000E160206820F080602060FEF745FD074639
:101AF00005E000BFFEF740FDC01B022837D8206874
:101B00000001F7D4B8F1000F18D0B8F1010F1ED0C2
:101B1000287D4FF07E41400801EB4060A96840EA13
:101B200001202169194A114008432061206840F0D2
:101B300080602060FEF720FD07461AE0A868E9688B
:101B40000002090940EA41402169114AEBE7288A6D
:101B50001049400801EB4050A96840EA0120216982
:101B60000D4AE0E7FEF708FDC01B022801D9032655
:101B700006E020680001F5D52069A96908432061C5
:101B80003046BDE8F081000000100240FF80FFF900
:101B9000FF80FDFF0000E0FFFF809FFF2DE9F04187
:101BA0003D4C06468846E0680025810730680DD028
:101BB000E16801F00301814216D1A8B1E0687168C3
:101BC000C0F30210401C88420ED120E0012804D04E
:101BD000022805D0032807D108E02168890701E021
:101BE00021684905002907DB012551E021688903A7
:101BF00002D421684903F5E7E16872686FF00F03CA
:101C000021F0730103EB021211430143E1602068EC
:101C100020F080502060FEF7AFFC074605E000BFD3
:101C2000FEF7AAFCC01B022829D820688000F7D440
:101C3000B8F1000F15D0307C4FF07E41400801EB29
:101C40004060B16840EA01206169144A11400843CC
:101C50006061206840F080502060FEF78DFC0746F0
:101C60000FE0B068F1680002090940EA414061698B
:101C70000B4AEBE7FEF780FCC01B022801D90325C5
:101C800006E020688000F5D56069716908436061ED
:101C90002846BDE8F081000000100240FF80FFF9F7
:101CA000FF80FDFFF8B51C4D06460024A86DC0005E
:101CB00002D5FEF72BFD0DE0A86D40F08050A86521
:101CC000A86D00F080500090FEF720FDA96D21F076
:101CD0008051A965B0F5007F04D0802E07D94FF060
:101CE00003040AE0802E08D9A02E01D804E001D117
:101CF000022402E0702E00D101240848016821F07E
:101D0000070121430160006800F00700A04201D0F4
:101D10000120F8BD0020F8BD001002400020024064
:101D2000F8B515460E460B460092044600224FF4C5
:101D3000C05100F019F888B93346002280212046AE
:101D4000009500F079F848B9334600224FF4C0619D
:101D50002046009500F008F8002804D0206E40F0DE
:101D6000200020660320F8BD2DE9F84F994617465C
:101D70000E4604460A9DFEF7FFFB411BA9EB010539
:101D8000FEF7FAFB804629484FF4C06A0068C0EBB2
:101D9000C00000EB8000000D684300903FE0564516
:101DA00001D107B9007BB9F1FF3F38D0FEF7E4FB62
:101DB000A0EB0800A84203D215B1009860B32CE054
:101DC0002068416821F0E00141606068B0F5827FE1
:101DD0000BD1A068B0F5004F02D0B0F5806F04D1F0
:101DE0002068016821F040010160A06AB0F5005F41
:101DF00009D12068016821F4005101602068016860
:101E000041F400510160012084F85D00002084F855
:101E10005C00032000F00CB80025401E00902068F4
:101E200081683140B942BAD10020F3E70C000020AC
:101E300018BCBDE8E08F00002DE9F8431E4691462E
:101E400088460446089DFEF797FB401B351AFEF7AF
:101E500093FB074625480068C0F3CB30684338E061
:101E6000701C37D0FEF788FBC01BA84203D215B107
:101E7000009860B32CE02068416821F0E0014160E7
:101E80006068B0F5827F0BD1A068B0F5004F02D03A
:101E9000B0F5806F04D12068016821F04001016035
:101EA000A06AB0F5005F09D12068016821F40051F3
:101EB00001602068016841F400510160012084F84C
:101EC0005D00002084F85C000320BDE8F883002555
:101ED000401E00902068816838EA010004D000218B
:101EE0004945BDD10020F0E70121F9E70C000020B1
:101EF0007047000010B500221146C02000F026F8FF
:101F0000044604A000F0D8FB21460BA000F0D4FB4F
:101F1000204610BD2D2D2D2D2047657453746174FE
:101F200075732066756E6374696F6E202D2D2D2D6F
:101F30002D200D0A000000005374617475733A205F
:101F40002D25303278200D0A000000002DE9F741E0
:101F500083B0002016460F468DF804008DF8080067
:101F60004FF0904402E027A000F0A6FB022120469B
:101F7000FEF7F7FA0128F6D000220121A0462046FC
:101F8000FEF7F4FA4FF47A752B46012203A9214893
:101F9000FFF7DCF91F48FFF733F90128FAD19DF864
:101FA0000C101DA000F088FB012301AA02A919480A
:101FB0000095FFF792FA1748FFF722F90128FAD1A6
:101FC00000240DE03A19012302A912480095FFF7F9
:101FD00084FA1048FFF714F90128FAD1641CA4B25E
:101FE000B442EFD3012211464046FEF7BFFA9DF8F6
:101FF00004100EA000F060FB9DF8040006B0BDE8E0
:10200000F08100004368697020697320427573791C
:10201000200D0A0014000020636F6D6D616E643A3C
:10202000202D25303278200D0A0000005374617491
:1020300075733A202D25303278200D0A00000000FB
:1020400010B50D4800F038FB4FF0904400221021ED
:102050002046FEF78BFA6420FEF730F901221021AA
:102060002046FEF783FA6420FEF728F9BDE8104009
:1020700002A000F021BB0000442C0008204C6F524D
:1020800061204368697073657420526573657420BC
:10209000446F6E65200D0A0001B509A000F00CFB2D
:1020A00001226946802000F03DF89DF8000020B133
:1020B0000AA000BF00F000FB08BD11A0FAE7000075
:1020C0002D2D2D205374616E6462792066756E63C8
:1020D00074696F6E202D2D2D0D0A00004F706572F2
:1020E0006174696F6E204D6F64653D204D4F4445AE
:1020F0005F53544442595F584F5343200D0A000028
:102100004F7065726174696F6E204D6F64653D201C
:102110004D4F44455F53544442595F5243200D0A8A
:10212000000000002DE9F7430E4615469DF800100B
:1021300026A000F0C1FA002405E0315D26A000F0E1
:10214000BBFA641CE4B2AC42F7D325A000F0B4FAA9
:102150004FF0904402E023A000F0AEFA02212046A6
:10216000FEF7FFF90128F6D000220121A046204603
:10217000FEF7FCF94FF47A773B46012269461D4889
:10218000FFF7E4F81B48FFF73BF80128FAD10024D9
:102190000CE031193B4601221648FFF7D7F81548E5
:1021A000FFF72EF80128FAD1641CA4B2AC42F0D398
:1021B000012211464046FEF7D9F9002000BF401C1D
:1021C000C0B20F28FAD300F017B80000636D643A6C
:1021D00020307825303278002D253032780000000C
:1021E0000D0A000043686970206973204275737995
:1021F000200D0A001400002006BCBDE8F883FEF79D
:10220000C1B930B5B9B0442122A8FEF714F81421A1
:1022100033A8FEF710F888216846FEF70CF8102066
:1022200001252290002428956020CDE9294022A88C
:102230002C94FEF751FD0F20CDE9330435943694EC
:10224000002133A83794FEF741FC684600950E94B0
:10225000FEF764FA6802FEF725FA39B030BD0000D7
:102260000D48016841F4700101600C48016841F0BB
:1022700001010160002181600268094B1A4002607F
:102280008214C260026822F48022026081610249E5
:10229000C00380390860704788ED00E000100240FC
:1022A000FFFFF6EA90F82410C90706D001684A68D3
:1022B000836A22F400321A434A6090F82410890796
:1022C00006D501684A68C36A22F480321A434A601C
:1022D00090F82410490706D501684A68036B22F478
:1022E00080221A434A6090F82410090706D5016835
:1022F0004A68436B22F400421A434A6090F8241063
:10230000C90606D501688A68836B22F480521A4395
:102310008A6090F82410890606D501688A68C36B24
:1023200022F400521A438A6090F82410490611D50D
:1023300001684A68036C22F480121A434A60016CF7
:10234000B1F5801F06D101684A68436C22F4C002CF
:102350001A434A6090F82410090606D501684A68B5
:10236000806C22F4002202434A607047F8B50026D0
:102370000446C667FEF700F90546206800686FF05E
:102380007E47000708D52B4600224FF40011204657
:10239000009700F03DF960B92068006840070AD551
:1023A0002B4600224FF480012046009700F030F9C0
:1023B00008B10320F8BD20206067A06784F8706032
:1023C0000020F8BD2DE9F0410446016880682269CB
:1023D000E3691043626900251A431043824F0A687B
:1023E000824B1A4002430A6020684168E26821F487
:1023F0004051114341602168A069B94201D0226A6D
:1024000010438A6822F4306202438A607849226865
:1024100078488A420DD1D0F8880010F0030006D029
:10242000012866D0022854D0032851D163E001204E
:102430004FE071498A420BD1D0F8880010F00C00AF
:1024400047D0042845D0082851D00C2840D152E06C
:102450006A498A420BD1D0F8880010F0300038D099
:10246000102846D0202842D0302831D143E064499A
:102470008A420BD1D0F8880010F0C00029D0402843
:1024800037D0802833D0C02822D134E05D498A4239
:102490000ED1D0F8880010F440701AD0B0F5807FCB
:1024A00027D0B0F5007F22D0B0F5407F10D122E0D8
:1024B000BA420DD1D0F8880010F4406009D0B0F5D0
:1024C000806F16D0B0F5006F11D0B0F5406F12D00C
:1024D00010204D4B00264FF40041BA422ED160B17E
:1024E000022813D004280BD0082874D10DE0022054
:1024F000EFE70420EDE70820EBE7FEF777FB01E0CC
:10250000FEF798FB030001D169E00B46626802EB1D
:10251000420098425FD8B3EB023F5CD8190E180214
:1025200073084FEA3207C01959410023FDF748FEEE
:10253000364AA0F5407191424FD94CE0E2694FF61E
:10254000EF778A4228D1092845D2DFE800F0050854
:1025500011440D4444441000FEF748FB01E0FEF72F
:1025600057FB030004D13AE0FEF764FBF9E70B46A2
:102570006068590001EB5001B1FBF0F080B2A0F1AE
:102580001001B94227D84FF6F0710140C0F3420064
:1025900001432068C16022E009281CD2DFE800F076
:1025A0000508111B0D1B1B1B1000FEF71FFB01E094
:1025B000FEF72EFB030004D111E0FEF73BFBF9E729
:1025C0000B46606803EB5001B1FBF0F080B2A0F164
:1025D0001001B94201D9012501E02168C8602666D1
:1025E00028466666BDE8F08100800040F369FFEF91
:1025F0000038014000100240004400400048004004
:10260000004C0040005000400024F400FFFC0F008C
:102610002DE9F0479A4617460E4604464FF000094A
:102620004FF02008089D39E0681C37D0FDF7A4FF63
:10263000A0EB0A00A84222D80DB320680168490720
:102640002CD5C069C043000528D421684FF4006030
:1026500008622068016821F4D071016020688168F7
:1026600021F001018160C4F87480C4F87880C4F856
:102670007C8000BF84F870900320BDE8F08720685C
:10268000016821F4D07101602068816821F00101A6
:102690008160C4F87480C4F87880EBE72068C06972
:1026A00036EA000004D00020B842BDD00020E4E7A4
:1026B0000120F9E7FEE700000FB4054B10B503A9B0
:1026C000044A029800F028F810BC5DF814FB0000E2
:1026D000812B0008100000200907090E002804DBE8
:1026E00000F1E02080F80014704700F00F0000F1C6
:1026F000E02080F8141D704702E008C8121F08C1CE
:10270000002AFAD170477047002001E001C1121F72
:10271000002AFBD1704700002DE9FF4F8DB00F4616
:102720000546002606E025280BD0DDE90F1290476C
:102730006D1C761C28780028F5D111B0304600F0C9
:10274000F3B90024A246A1460122EC4900E004436B
:1027500015F8013F203B02FA03F00842F7D1287830
:102760002A2810D06FF02F022878A0F13001092913
:1027700014D80AEB8A0102EB410144F0020400EB99
:10278000010A6D1CF0E701CF5FEA000A03D544F4AB
:102790000054CAF1000A44F002046D1C28782E2867
:1027A00017D115F8010F44F004042A280ED06FF059
:1027B0002F022878A0F1300109290AD809EB8901F4
:1027C00002EB410100EB01096D1CF2E757F8049B95
:1027D0006D1C28786C280FD006DC4C2817D0682890
:1027E0000DD06A2814D104E0742810D07A280FD1B3
:1027F0000DE044F400140AE044F4801401E044F4D1
:1028000040146978814202D104F580146D1C6D1C5E
:102810002A786E2A1FD00CDC632A31D004DC002A0F
:102820008BD0582A11D1A3E0642A68D0692A0CD130
:1028300065E0732A2ED004DC6F2A73D0702A04D18D
:102840009BE0752A6FD0782A6ED01046DDE90F1212
:102850009047761C50E1C4F30250022806D00328AA
:1028600009D0042801CF09D0066045E101CFF11756
:10287000C0E9006140E101CF06803DE106703BE127
:1028800017F8040B8DF8000000208DF80100EB46CE
:10289000012003E057F804BB4FF0FF3061074FF011
:1028A000000102D40DE008F10101884649450FDA24
:1028B0008045F8DB1BF808100029F4D108E008F186
:1028C000010188468142FADB1BF808100029F6D185
:1028D000DDE90F23AAEB08008146214600F039F913
:1028E000304400EB080604E0DDE90F121BF8010B91
:1028F0009047B8F10108F7D221464846F7E00A218F
:10290000C4F302534FF0000B0891022B04D001CF07
:10291000C117032B09D00AE0FF1D27F00707F7E8CE
:10292000020108E032E01FE020E000B2C117042BF2
:1029300001D140B2C117031E71F1000307DA4FF055
:10294000000CD0EB0C006CEB01012D2302E0230501
:1029500004D52B238DF82430012303E0E30701D0B5
:102960002023F7E7984658E00A2110E010210EE0F6
:1029700010204FF0000B08900CE010214FF0000BDE
:1029800044F004044FF00809089103E008214FF0D7
:10299000000B0891C4F30253022B04D001CF002195
:1029A000032B06D006E0FF1D27F00707F7E802011A
:1029B00003E080B2042B00D1C0B24FF0000823071F
:1029C0002BD5702A07D0DDF820C08CF0100C5CEA03
:1029D0000B0C05D00EE040238DF82430012308E0D5
:1029E00050EA010306D030238DF824308DF82520DD
:1029F00002239846DDF820C08CF0080C5CEA0B0C32
:102A00000BD150EA010301D1630706D530238DF8BD
:102A100024304FF00108A9F10109582A04D038A246
:102A20000B9208AA0A920BE03AA2F9E75B46089AD1
:102A3000FDF7C6FB0B9B9B5C0A9A521E0A92137011
:102A400050EA0102F2D10A98ADEB000000F1200B30
:102A5000600702D524F4803401E04FF00109D94524
:102A600002DDA9EB0B0000E0002000EB0B0141446C
:102A70000890AAEB010AE00306D4DDE90F23214602
:102A8000504600F066F806444FF0000908E009A936
:102A900011F80900DDE90F12904709F10109761CD0
:102AA000C145F4DBE0030CD5DDE90F232146504698
:102AB00000F04FF8064404E0DDE90F1230209047A3
:102AC000761C0899481E08900029F5DC08E00A9851
:102AD0000A990078491C0A91DDE90F129047761C8B
:102AE000BBF10001ABF1010BF1DC21465046DDE901
:102AF0000F2300F01CF806446D1C1BE6092801009A
:102B00003031323334353637383961626364656663
:102B10000000000030313233343536373839414225
:102B2000434445460000000030BCBDE8C08F2DE99D
:102B3000F041044600251E461746880404D405E0EB
:102B400039462020B0476D1C641EF9D52846BDE8E3
:102B5000F0812DE9F041044600251E469046C80349
:102B600001D5302700E02027880404D505E0414640
:102B70003846B0476D1C641EF9D52846BDE8F08183
:102B800013B54FF6FF73012269460248FEF752FE65
:102B900000201CBD78000020FDF7FCFCFFF731FB96
:102BA000FEF7C4FEFEF71EFFFEF73CFFFEF752FFE6
:102BB000FEE7000000000000000000000102030426
:102BC00006070809A0860100400D0300801A0600D0
:102BD00000350C0040420F0080841E0000093D00BB
:102BE00000127A000024F40000366E010048E8016B
:102BF000006CDC0200000000010203042D2D2D2DCD
:102C00002D2D2D2D2D2D2D2D2D2D2D2D2D2D2D2DF4
:102C10002D2D2D2D2D2D2D2D20535441525420502E
:102C2000524F4752414D202D2D2D2D2D2D2D2D2D27
:102C30002D2D2D2D2D2D2D2D2D2D2D2D2D2D200DF1
:102C40000A0000002D2D2D2D2D2D2D2D2D2D2D2D5E
:102C50002D2D2D2D2D2D2D2D2D2D2D2052657365D6
:102C6000742043686970202D2D2D2D2D2D2D2D2D97
:102C70002D2D2D2D2D2D2D2D2D2D2D2D2D2D2D2D84
:102C80002D2D2D200D0A0000A82C0008000000208A
:102C900014000000F8260008BC2C000814000020D6
:102CA000E4040000082700080100000010000000F4
:0C2CB0000000000000093D0000000000D2
:040000050800018965
:00000001FF
